# Comparing `tmp/procurement_bytetheory-1.0.0.tar.gz` & `tmp/procurement_bytetheory-1.0.1.tar.gz`

## filetype from file(1)

```diff
@@ -1 +1 @@
-gzip compressed data, was "procurement_bytetheory-1.0.0.tar", last modified: Wed May  3 19:58:16 2023, max compression
+gzip compressed data, was "procurement_bytetheory-1.0.1.tar", last modified: Tue May  9 22:43:27 2023, max compression
```

## Comparing `procurement_bytetheory-1.0.0.tar` & `procurement_bytetheory-1.0.1.tar`

### file list

```diff
@@ -1,44 +1,44 @@
-drwxr-xr-x   0 robertblom   (501) staff       (20)        0 2023-05-03 19:58:16.494168 procurement_bytetheory-1.0.0/
--rw-r--r--   0 robertblom   (501) staff       (20)     1067 2023-04-27 14:56:54.000000 procurement_bytetheory-1.0.0/LICENSE
--rw-r--r--   0 robertblom   (501) staff       (20)      363 2023-05-03 19:58:16.494248 procurement_bytetheory-1.0.0/PKG-INFO
--rw-r--r--   0 robertblom   (501) staff       (20)        0 2023-04-27 17:35:18.000000 procurement_bytetheory-1.0.0/README.md
--rw-r--r--   0 robertblom   (501) staff       (20)       84 2023-04-27 14:58:37.000000 procurement_bytetheory-1.0.0/pyproject.toml
--rw-r--r--   0 robertblom   (501) staff       (20)      543 2023-05-03 19:58:16.494557 procurement_bytetheory-1.0.0/setup.cfg
-drwxr-xr-x   0 robertblom   (501) staff       (20)        0 2023-05-03 19:58:16.487673 procurement_bytetheory-1.0.0/src/
-drwxr-xr-x   0 robertblom   (501) staff       (20)        0 2023-05-03 19:58:16.488863 procurement_bytetheory-1.0.0/src/procurement_bytetheory/
--rw-r--r--   0 robertblom   (501) staff       (20)      295 2023-05-02 16:19:26.000000 procurement_bytetheory-1.0.0/src/procurement_bytetheory/__init__.py
-drwxr-xr-x   0 robertblom   (501) staff       (20)        0 2023-05-03 19:58:16.490507 procurement_bytetheory-1.0.0/src/procurement_bytetheory/controllers/
--rw-r--r--   0 robertblom   (501) staff       (20)      611 2023-04-28 20:46:41.000000 procurement_bytetheory-1.0.0/src/procurement_bytetheory/controllers/CLIController.py
--rw-r--r--   0 robertblom   (501) staff       (20)       63 2023-05-02 14:53:25.000000 procurement_bytetheory-1.0.0/src/procurement_bytetheory/controllers/Observer.py
--rw-r--r--   0 robertblom   (501) staff       (20)     1288 2023-05-03 19:13:30.000000 procurement_bytetheory-1.0.0/src/procurement_bytetheory/controllers/UIController.py
--rw-r--r--   0 robertblom   (501) staff       (20)        0 2023-04-27 21:45:35.000000 procurement_bytetheory-1.0.0/src/procurement_bytetheory/controllers/__init__.py
-drwxr-xr-x   0 robertblom   (501) staff       (20)        0 2023-05-03 19:58:16.491004 procurement_bytetheory-1.0.0/src/procurement_bytetheory/data/
--rw-r--r--   0 robertblom   (501) staff       (20)    86016 2023-05-03 19:58:12.000000 procurement_bytetheory-1.0.0/src/procurement_bytetheory/data/ProcurementGame.db
--rw-r--r--   0 robertblom   (501) staff       (20)        0 2023-04-27 15:08:49.000000 procurement_bytetheory-1.0.0/src/procurement_bytetheory/data/__init__.py
--rw-r--r--   0 robertblom   (501) staff       (20)      397 2023-05-02 20:07:41.000000 procurement_bytetheory-1.0.0/src/procurement_bytetheory/data/items.csv
-drwxr-xr-x   0 robertblom   (501) staff       (20)        0 2023-05-03 19:58:16.491941 procurement_bytetheory-1.0.0/src/procurement_bytetheory/db_connectors/
--rw-r--r--   0 robertblom   (501) staff       (20)     2440 2023-05-03 14:15:31.000000 procurement_bytetheory-1.0.0/src/procurement_bytetheory/db_connectors/BusinessDbHandler.py
--rw-r--r--   0 robertblom   (501) staff       (20)     3510 2023-05-03 14:20:12.000000 procurement_bytetheory-1.0.0/src/procurement_bytetheory/db_connectors/DatabaseHandler.py
--rw-r--r--   0 robertblom   (501) staff       (20)     2524 2023-05-03 19:02:03.000000 procurement_bytetheory-1.0.0/src/procurement_bytetheory/db_connectors/InventoryDbHandler.py
--rw-r--r--   0 robertblom   (501) staff       (20)     2387 2023-05-03 16:58:38.000000 procurement_bytetheory-1.0.0/src/procurement_bytetheory/db_connectors/ItemDbHandler.py
--rw-r--r--   0 robertblom   (501) staff       (20)     2429 2023-05-03 19:02:11.000000 procurement_bytetheory-1.0.0/src/procurement_bytetheory/db_connectors/MarketDbHandler.py
--rw-r--r--   0 robertblom   (501) staff       (20)        0 2023-04-27 21:45:07.000000 procurement_bytetheory-1.0.0/src/procurement_bytetheory/db_connectors/__init__.py
-drwxr-xr-x   0 robertblom   (501) staff       (20)        0 2023-05-03 19:58:16.492787 procurement_bytetheory-1.0.0/src/procurement_bytetheory/model/
--rw-r--r--   0 robertblom   (501) staff       (20)     4066 2023-05-03 19:30:31.000000 procurement_bytetheory-1.0.0/src/procurement_bytetheory/model/Business.py
--rw-r--r--   0 robertblom   (501) staff       (20)     1275 2023-05-03 19:30:19.000000 procurement_bytetheory-1.0.0/src/procurement_bytetheory/model/Inventory.py
--rw-r--r--   0 robertblom   (501) staff       (20)     1302 2023-05-03 19:15:10.000000 procurement_bytetheory-1.0.0/src/procurement_bytetheory/model/Item.py
--rw-r--r--   0 robertblom   (501) staff       (20)     1800 2023-05-03 14:22:52.000000 procurement_bytetheory-1.0.0/src/procurement_bytetheory/model/Market.py
--rw-r--r--   0 robertblom   (501) staff       (20)      350 2023-05-02 14:51:14.000000 procurement_bytetheory-1.0.0/src/procurement_bytetheory/model/Subject.py
--rw-r--r--   0 robertblom   (501) staff       (20)        0 2023-04-27 21:45:02.000000 procurement_bytetheory-1.0.0/src/procurement_bytetheory/model/__init__.py
-drwxr-xr-x   0 robertblom   (501) staff       (20)        0 2023-05-03 19:58:16.493274 procurement_bytetheory-1.0.0/src/procurement_bytetheory/utils/
--rw-r--r--   0 robertblom   (501) staff       (20)      374 2023-04-27 21:42:06.000000 procurement_bytetheory-1.0.0/src/procurement_bytetheory/utils/FloatValidator.py
--rw-r--r--   0 robertblom   (501) staff       (20)        0 2023-04-27 21:44:56.000000 procurement_bytetheory-1.0.0/src/procurement_bytetheory/utils/__init__.py
-drwxr-xr-x   0 robertblom   (501) staff       (20)        0 2023-05-03 19:58:16.494070 procurement_bytetheory-1.0.0/src/procurement_bytetheory/views/
--rw-r--r--   0 robertblom   (501) staff       (20)     1448 2023-04-28 20:27:35.000000 procurement_bytetheory-1.0.0/src/procurement_bytetheory/views/CLIProcurementGame.py
--rw-r--r--   0 robertblom   (501) staff       (20)     3057 2023-04-28 18:43:21.000000 procurement_bytetheory-1.0.0/src/procurement_bytetheory/views/CLIProcurementSimulator.py
--rw-r--r--   0 robertblom   (501) staff       (20)        0 2023-04-27 21:44:50.000000 procurement_bytetheory-1.0.0/src/procurement_bytetheory/views/__init__.py
-drwxr-xr-x   0 robertblom   (501) staff       (20)        0 2023-05-03 19:58:16.489561 procurement_bytetheory-1.0.0/src/procurement_bytetheory.egg-info/
--rw-r--r--   0 robertblom   (501) staff       (20)      363 2023-05-03 19:58:16.000000 procurement_bytetheory-1.0.0/src/procurement_bytetheory.egg-info/PKG-INFO
--rw-r--r--   0 robertblom   (501) staff       (20)     1507 2023-05-03 19:58:16.000000 procurement_bytetheory-1.0.0/src/procurement_bytetheory.egg-info/SOURCES.txt
--rw-r--r--   0 robertblom   (501) staff       (20)        1 2023-05-03 19:58:16.000000 procurement_bytetheory-1.0.0/src/procurement_bytetheory.egg-info/dependency_links.txt
--rw-r--r--   0 robertblom   (501) staff       (20)       23 2023-05-03 19:58:16.000000 procurement_bytetheory-1.0.0/src/procurement_bytetheory.egg-info/top_level.txt
+drwxr-xr-x   0 robertblom   (501) staff       (20)        0 2023-05-09 22:43:27.786149 procurement_bytetheory-1.0.1/
+-rw-r--r--   0 robertblom   (501) staff       (20)     1067 2023-04-27 14:56:54.000000 procurement_bytetheory-1.0.1/LICENSE
+-rw-r--r--   0 robertblom   (501) staff       (20)      363 2023-05-09 22:43:27.786244 procurement_bytetheory-1.0.1/PKG-INFO
+-rw-r--r--   0 robertblom   (501) staff       (20)        0 2023-04-27 17:35:18.000000 procurement_bytetheory-1.0.1/README.md
+-rw-r--r--   0 robertblom   (501) staff       (20)       84 2023-04-27 14:58:37.000000 procurement_bytetheory-1.0.1/pyproject.toml
+-rw-r--r--   0 robertblom   (501) staff       (20)      543 2023-05-09 22:43:27.786584 procurement_bytetheory-1.0.1/setup.cfg
+drwxr-xr-x   0 robertblom   (501) staff       (20)        0 2023-05-09 22:43:27.776850 procurement_bytetheory-1.0.1/src/
+drwxr-xr-x   0 robertblom   (501) staff       (20)        0 2023-05-09 22:43:27.778060 procurement_bytetheory-1.0.1/src/procurement_bytetheory/
+-rw-r--r--   0 robertblom   (501) staff       (20)      295 2023-05-02 16:19:26.000000 procurement_bytetheory-1.0.1/src/procurement_bytetheory/__init__.py
+drwxr-xr-x   0 robertblom   (501) staff       (20)        0 2023-05-09 22:43:27.780442 procurement_bytetheory-1.0.1/src/procurement_bytetheory/controllers/
+-rw-r--r--   0 robertblom   (501) staff       (20)      611 2023-04-28 20:46:41.000000 procurement_bytetheory-1.0.1/src/procurement_bytetheory/controllers/CLIController.py
+-rw-r--r--   0 robertblom   (501) staff       (20)       63 2023-05-02 14:53:25.000000 procurement_bytetheory-1.0.1/src/procurement_bytetheory/controllers/Observer.py
+-rw-r--r--   0 robertblom   (501) staff       (20)     1700 2023-05-09 22:40:43.000000 procurement_bytetheory-1.0.1/src/procurement_bytetheory/controllers/UIController.py
+-rw-r--r--   0 robertblom   (501) staff       (20)        0 2023-04-27 21:45:35.000000 procurement_bytetheory-1.0.1/src/procurement_bytetheory/controllers/__init__.py
+drwxr-xr-x   0 robertblom   (501) staff       (20)        0 2023-05-09 22:43:27.780965 procurement_bytetheory-1.0.1/src/procurement_bytetheory/data/
+-rw-r--r--   0 robertblom   (501) staff       (20)    86016 2023-05-09 22:43:24.000000 procurement_bytetheory-1.0.1/src/procurement_bytetheory/data/ProcurementGame.db
+-rw-r--r--   0 robertblom   (501) staff       (20)        0 2023-04-27 15:08:49.000000 procurement_bytetheory-1.0.1/src/procurement_bytetheory/data/__init__.py
+-rw-r--r--   0 robertblom   (501) staff       (20)      397 2023-05-02 20:07:41.000000 procurement_bytetheory-1.0.1/src/procurement_bytetheory/data/items.csv
+drwxr-xr-x   0 robertblom   (501) staff       (20)        0 2023-05-09 22:43:27.782895 procurement_bytetheory-1.0.1/src/procurement_bytetheory/db_connectors/
+-rw-r--r--   0 robertblom   (501) staff       (20)     2440 2023-05-03 14:15:31.000000 procurement_bytetheory-1.0.1/src/procurement_bytetheory/db_connectors/BusinessDbHandler.py
+-rw-r--r--   0 robertblom   (501) staff       (20)     3510 2023-05-03 14:20:12.000000 procurement_bytetheory-1.0.1/src/procurement_bytetheory/db_connectors/DatabaseHandler.py
+-rw-r--r--   0 robertblom   (501) staff       (20)     2524 2023-05-03 19:02:03.000000 procurement_bytetheory-1.0.1/src/procurement_bytetheory/db_connectors/InventoryDbHandler.py
+-rw-r--r--   0 robertblom   (501) staff       (20)     2387 2023-05-03 16:58:38.000000 procurement_bytetheory-1.0.1/src/procurement_bytetheory/db_connectors/ItemDbHandler.py
+-rw-r--r--   0 robertblom   (501) staff       (20)     2429 2023-05-03 19:02:11.000000 procurement_bytetheory-1.0.1/src/procurement_bytetheory/db_connectors/MarketDbHandler.py
+-rw-r--r--   0 robertblom   (501) staff       (20)        0 2023-04-27 21:45:07.000000 procurement_bytetheory-1.0.1/src/procurement_bytetheory/db_connectors/__init__.py
+drwxr-xr-x   0 robertblom   (501) staff       (20)        0 2023-05-09 22:43:27.784793 procurement_bytetheory-1.0.1/src/procurement_bytetheory/model/
+-rw-r--r--   0 robertblom   (501) staff       (20)     4066 2023-05-03 19:30:31.000000 procurement_bytetheory-1.0.1/src/procurement_bytetheory/model/Business.py
+-rw-r--r--   0 robertblom   (501) staff       (20)     1275 2023-05-03 19:30:19.000000 procurement_bytetheory-1.0.1/src/procurement_bytetheory/model/Inventory.py
+-rw-r--r--   0 robertblom   (501) staff       (20)     1302 2023-05-03 19:15:10.000000 procurement_bytetheory-1.0.1/src/procurement_bytetheory/model/Item.py
+-rw-r--r--   0 robertblom   (501) staff       (20)     1800 2023-05-03 14:22:52.000000 procurement_bytetheory-1.0.1/src/procurement_bytetheory/model/Market.py
+-rw-r--r--   0 robertblom   (501) staff       (20)      350 2023-05-02 14:51:14.000000 procurement_bytetheory-1.0.1/src/procurement_bytetheory/model/Subject.py
+-rw-r--r--   0 robertblom   (501) staff       (20)        0 2023-04-27 21:45:02.000000 procurement_bytetheory-1.0.1/src/procurement_bytetheory/model/__init__.py
+drwxr-xr-x   0 robertblom   (501) staff       (20)        0 2023-05-09 22:43:27.785264 procurement_bytetheory-1.0.1/src/procurement_bytetheory/utils/
+-rw-r--r--   0 robertblom   (501) staff       (20)      374 2023-04-27 21:42:06.000000 procurement_bytetheory-1.0.1/src/procurement_bytetheory/utils/FloatValidator.py
+-rw-r--r--   0 robertblom   (501) staff       (20)        0 2023-04-27 21:44:56.000000 procurement_bytetheory-1.0.1/src/procurement_bytetheory/utils/__init__.py
+drwxr-xr-x   0 robertblom   (501) staff       (20)        0 2023-05-09 22:43:27.786036 procurement_bytetheory-1.0.1/src/procurement_bytetheory/views/
+-rw-r--r--   0 robertblom   (501) staff       (20)     1448 2023-04-28 20:27:35.000000 procurement_bytetheory-1.0.1/src/procurement_bytetheory/views/CLIProcurementGame.py
+-rw-r--r--   0 robertblom   (501) staff       (20)     3057 2023-04-28 18:43:21.000000 procurement_bytetheory-1.0.1/src/procurement_bytetheory/views/CLIProcurementSimulator.py
+-rw-r--r--   0 robertblom   (501) staff       (20)        0 2023-04-27 21:44:50.000000 procurement_bytetheory-1.0.1/src/procurement_bytetheory/views/__init__.py
+drwxr-xr-x   0 robertblom   (501) staff       (20)        0 2023-05-09 22:43:27.779132 procurement_bytetheory-1.0.1/src/procurement_bytetheory.egg-info/
+-rw-r--r--   0 robertblom   (501) staff       (20)      363 2023-05-09 22:43:27.000000 procurement_bytetheory-1.0.1/src/procurement_bytetheory.egg-info/PKG-INFO
+-rw-r--r--   0 robertblom   (501) staff       (20)     1507 2023-05-09 22:43:27.000000 procurement_bytetheory-1.0.1/src/procurement_bytetheory.egg-info/SOURCES.txt
+-rw-r--r--   0 robertblom   (501) staff       (20)        1 2023-05-09 22:43:27.000000 procurement_bytetheory-1.0.1/src/procurement_bytetheory.egg-info/dependency_links.txt
+-rw-r--r--   0 robertblom   (501) staff       (20)       23 2023-05-09 22:43:27.000000 procurement_bytetheory-1.0.1/src/procurement_bytetheory.egg-info/top_level.txt
```

### Comparing `procurement_bytetheory-1.0.0/LICENSE` & `procurement_bytetheory-1.0.1/LICENSE`

 * *Files identical despite different names*

### Comparing `procurement_bytetheory-1.0.0/setup.cfg` & `procurement_bytetheory-1.0.1/setup.cfg`

 * *Files 1% similar despite different names*

```diff
@@ -1,10 +1,10 @@
 [metadata]
 name = procurement_bytetheory
-version = 1.0.0
+version = 1.0.1
 author = Robbie Blom
 description = Provides helpers to procurement app.
 long_description = file: README.md, LICENSE.txt
 long_description_content_type = text/markdown
 classifiers = 
 	Programming Language :: Python :: 3
 	License :: OSI Approved :: MIT License
```

### Comparing `procurement_bytetheory-1.0.0/src/procurement_bytetheory/controllers/CLIController.py` & `procurement_bytetheory-1.0.1/src/procurement_bytetheory/controllers/CLIController.py`

 * *Files identical despite different names*

### Comparing `procurement_bytetheory-1.0.0/src/procurement_bytetheory/controllers/UIController.py` & `procurement_bytetheory-1.0.1/src/procurement_bytetheory/controllers/UIController.py`

 * *Files 14% similar despite different names*

```diff
@@ -10,36 +10,43 @@
 
     def setView(self, view):
         self.view = view
 
     def setBusiness(self, business):
         self.business = business
 
-    def update(self, message=""):
-        self.view.update(message)
+    def update(self, message="", payload={}):
+        self.view.update(message, payload)
 
     def createBusiness(self, name, moneyAmount):
         newBusiness = Business(name, moneyAmount)
         newBusiness.attachObserver(self)
         newBusiness.save()
-        newBusiness.notifyObservers("Business created")
+        newBusiness.notifyObservers("Business created", newBusiness)
         self.setBusiness(newBusiness)
 
     def seedMarket(self):
         self.business.market.seedMarket()
         self.business.market.save()
 
     def buyCheapest(self, itemName=None):
         self.business.buyCheapest(itemName)
         self.business.save()
+        self.business.notifyObservers("Cheapest item bought", self.business)
 
     def buyAsManyAsPossible(self, itemName=None):
         self.business.buyAsManyAsPossible(itemName)
         self.business.save()
+        self.business.notifyObservers("Bought as many as possible", self.business)
 
     def sellItem(self, itemName=None):
         self.business.sellItem(itemName)
         self.business.save()
+        self.business.notifyObservers("Sold item", self.business)
 
     def liquidateInventory(self):
         self.business.liquidateInventory()
         self.business.save()
+        self.business.notifyObservers("Liquidated inventory", self.business)
+    
+    def getNetWorth(self):
+        return self.business.getNetWorth()
```

### Comparing `procurement_bytetheory-1.0.0/src/procurement_bytetheory/data/ProcurementGame.db` & `procurement_bytetheory-1.0.1/src/procurement_bytetheory/data/ProcurementGame.db`

 * *Format-specific differences are supported for SQLite databases but no file-specific differences were detected; falling back to a binary diff. file(1) reports: SQLite 3.x database, last written using SQLite version 3037000, file counter 6884, database pages 21, 1st free page 11, free pages 4, cookie 0x80, schema 4, UTF-8, version-valid-for 6884*

 * *Files 2% similar despite different names*

```diff
@@ -1,13 +1,13 @@
 00000000: 5351 4c69 7465 2066 6f72 6d61 7420 3300  SQLite format 3.
-00000010: 1000 0101 0040 2020 0000 1ae4 0000 0015  .....@  ........
-00000020: 0000 000b 0000 0004 0000 0080 0000 0004  ................
+00000010: 1000 0101 0040 2020 0000 1b14 0000 0015  .....@  ........
+00000020: 0000 000b 0000 0004 0000 00b0 0000 0004  ................
 00000030: 0000 0000 0000 0000 0000 0001 0000 0000  ................
 00000040: 0000 0000 0000 0000 0000 0000 0000 0000  ................
-00000050: 0000 0000 0000 0000 0000 0000 0000 1ae4  ................
+00000050: 0000 0000 0000 0000 0000 0000 0000 1b14  ................
 00000060: 002e 5748 0d0f f800 100a 0000 0f1d 0fc7  ..WH............
 00000070: 0e29 0ee2 0d99 0dfc 0cf0 0d62 0c30 0cc7  .).........b.0..
 00000080: 0b57 0bfd 0ab8 0b24 0a00 0a7b 0979 0979  .W.....$...{.y.y
 00000090: 0979 0979 0000 0000 0000 0000 0000 0000  .y.y............
 000000a0: 0000 0000 0000 0000 0000 0000 0000 0000  ................
 000000b0: 0000 0000 0000 0000 0000 0000 0000 0000  ................
 000000c0: 0000 0000 0000 0000 0000 0000 0000 0000  ................
```

### Comparing `procurement_bytetheory-1.0.0/src/procurement_bytetheory/db_connectors/BusinessDbHandler.py` & `procurement_bytetheory-1.0.1/src/procurement_bytetheory/db_connectors/BusinessDbHandler.py`

 * *Files identical despite different names*

### Comparing `procurement_bytetheory-1.0.0/src/procurement_bytetheory/db_connectors/DatabaseHandler.py` & `procurement_bytetheory-1.0.1/src/procurement_bytetheory/db_connectors/DatabaseHandler.py`

 * *Files identical despite different names*

### Comparing `procurement_bytetheory-1.0.0/src/procurement_bytetheory/db_connectors/InventoryDbHandler.py` & `procurement_bytetheory-1.0.1/src/procurement_bytetheory/db_connectors/InventoryDbHandler.py`

 * *Files identical despite different names*

### Comparing `procurement_bytetheory-1.0.0/src/procurement_bytetheory/db_connectors/ItemDbHandler.py` & `procurement_bytetheory-1.0.1/src/procurement_bytetheory/db_connectors/ItemDbHandler.py`

 * *Files identical despite different names*

### Comparing `procurement_bytetheory-1.0.0/src/procurement_bytetheory/db_connectors/MarketDbHandler.py` & `procurement_bytetheory-1.0.1/src/procurement_bytetheory/db_connectors/MarketDbHandler.py`

 * *Files identical despite different names*

### Comparing `procurement_bytetheory-1.0.0/src/procurement_bytetheory/model/Business.py` & `procurement_bytetheory-1.0.1/src/procurement_bytetheory/model/Business.py`

 * *Files identical despite different names*

### Comparing `procurement_bytetheory-1.0.0/src/procurement_bytetheory/model/Inventory.py` & `procurement_bytetheory-1.0.1/src/procurement_bytetheory/model/Inventory.py`

 * *Files identical despite different names*

### Comparing `procurement_bytetheory-1.0.0/src/procurement_bytetheory/model/Item.py` & `procurement_bytetheory-1.0.1/src/procurement_bytetheory/model/Item.py`

 * *Files identical despite different names*

### Comparing `procurement_bytetheory-1.0.0/src/procurement_bytetheory/model/Market.py` & `procurement_bytetheory-1.0.1/src/procurement_bytetheory/model/Market.py`

 * *Files identical despite different names*

### Comparing `procurement_bytetheory-1.0.0/src/procurement_bytetheory/views/CLIProcurementGame.py` & `procurement_bytetheory-1.0.1/src/procurement_bytetheory/views/CLIProcurementGame.py`

 * *Files identical despite different names*

### Comparing `procurement_bytetheory-1.0.0/src/procurement_bytetheory/views/CLIProcurementSimulator.py` & `procurement_bytetheory-1.0.1/src/procurement_bytetheory/views/CLIProcurementSimulator.py`

 * *Files identical despite different names*

### Comparing `procurement_bytetheory-1.0.0/src/procurement_bytetheory.egg-info/SOURCES.txt` & `procurement_bytetheory-1.0.1/src/procurement_bytetheory.egg-info/SOURCES.txt`

 * *Files identical despite different names*

